{
  "contractName": "DataRegistry",
  "abi": [
    {
      "anonymous": false,
      "inputs": [
        {
          "indexed": true,
          "internalType": "address",
          "name": "sender",
          "type": "address"
        },
        {
          "indexed": false,
          "internalType": "uint256",
          "name": "fileContentLength",
          "type": "uint256"
        }
      ],
      "name": "FileStored",
      "type": "event"
    },
    {
      "inputs": [],
      "name": "storedFileData",
      "outputs": [
        {
          "internalType": "bytes",
          "name": "",
          "type": "bytes"
        }
      ],
      "stateMutability": "view",
      "type": "function",
      "constant": true
    },
    {
      "inputs": [
        {
          "internalType": "bytes",
          "name": "fileContent",
          "type": "bytes"
        }
      ],
      "name": "storeFile",
      "outputs": [],
      "stateMutability": "nonpayable",
      "type": "function"
    },
    {
      "inputs": [],
      "name": "getStoredFileData",
      "outputs": [
        {
          "internalType": "address",
          "name": "",
          "type": "address"
        },
        {
          "internalType": "uint256",
          "name": "",
          "type": "uint256"
        }
      ],
      "stateMutability": "view",
      "type": "function",
      "constant": true
    },
    {
      "inputs": [],
      "name": "getStoredFile",
      "outputs": [
        {
          "internalType": "bytes",
          "name": "",
          "type": "bytes"
        }
      ],
      "stateMutability": "view",
      "type": "function",
      "constant": true
    }
  ],
  "bytecode": "0x608060405234801561000f575f80fd5b5061091b8061001d5f395ff3fe608060405234801561000f575f80fd5b506004361061004a575f3560e01c8063b03da1571461004e578063b4bbcafe1461006c578063c09904a91461008a578063f3f0b25f146100a9575b5f80fd5b6100566100c5565b6040516100639190610304565b60405180910390f35b610074610154565b6040516100819190610304565b60405180910390f35b6100926101df565b6040516100a092919061037b565b60405180910390f35b6100c360048036038101906100be91906104df565b6101f8565b005b60605f80546100d390610553565b80601f01602080910402602001604051908101604052809291908181526020018280546100ff90610553565b801561014a5780601f106101215761010080835404028352916020019161014a565b820191905f5260205f20905b81548152906001019060200180831161012d57829003601f168201915b5050505050905090565b5f805461016090610553565b80601f016020809104026020016040519081016040528092919081815260200182805461018c90610553565b80156101d75780601f106101ae576101008083540402835291602001916101d7565b820191905f5260205f20905b8154815290600101906020018083116101ba57829003601f168201915b505050505081565b5f80335f80546101ee90610553565b9050915091509091565b5f8160405160200161020b92919061064f565b6040516020818303038152906040525f908161022791906107fd565b503373ffffffffffffffffffffffffffffffffffffffff167fe890abe3564f7aa7a19cb663df1b275468556288c3e9ab61e56d3c4116e1f232825160405161026f91906108cc565b60405180910390a250565b5f81519050919050565b5f82825260208201905092915050565b5f5b838110156102b1578082015181840152602081019050610296565b5f8484015250505050565b5f601f19601f8301169050919050565b5f6102d68261027a565b6102e08185610284565b93506102f0818560208601610294565b6102f9816102bc565b840191505092915050565b5f6020820190508181035f83015261031c81846102cc565b905092915050565b5f73ffffffffffffffffffffffffffffffffffffffff82169050919050565b5f61034d82610324565b9050919050565b61035d81610343565b82525050565b5f819050919050565b61037581610363565b82525050565b5f60408201905061038e5f830185610354565b61039b602083018461036c565b9392505050565b5f604051905090565b5f80fd5b5f80fd5b5f80fd5b5f80fd5b7f4e487b71000000000000000000000000000000000000000000000000000000005f52604160045260245ffd5b6103f1826102bc565b810181811067ffffffffffffffff821117156104105761040f6103bb565b5b80604052505050565b5f6104226103a2565b905061042e82826103e8565b919050565b5f67ffffffffffffffff82111561044d5761044c6103bb565b5b610456826102bc565b9050602081019050919050565b828183375f83830152505050565b5f61048361047e84610433565b610419565b90508281526020810184848401111561049f5761049e6103b7565b5b6104aa848285610463565b509392505050565b5f82601f8301126104c6576104c56103b3565b5b81356104d6848260208601610471565b91505092915050565b5f602082840312156104f4576104f36103ab565b5b5f82013567ffffffffffffffff811115610511576105106103af565b5b61051d848285016104b2565b91505092915050565b7f4e487b71000000000000000000000000000000000000000000000000000000005f52602260045260245ffd5b5f600282049050600182168061056a57607f821691505b60208210810361057d5761057c610526565b5b50919050565b5f81905092915050565b5f819050815f5260205f209050919050565b5f81546105ab81610553565b6105b58186610583565b9450600182165f81146105cf57600181146105e457610616565b60ff1983168652811515820286019350610616565b6105ed8561058d565b5f5b8381101561060e578154818901526001820191506020810190506105ef565b838801955050505b50505092915050565b5f6106298261027a565b6106338185610583565b9350610643818560208601610294565b80840191505092915050565b5f61065a828561059f565b9150610666828461061f565b91508190509392505050565b5f6020601f8301049050919050565b5f82821b905092915050565b5f600883026106bc7fffffffffffffffffffffffffffffffffffffffffffffffffffffffffffffffff82610681565b6106c68683610681565b95508019841693508086168417925050509392505050565b5f819050919050565b5f6107016106fc6106f784610363565b6106de565b610363565b9050919050565b5f819050919050565b61071a836106e7565b61072e61072682610708565b84845461068d565b825550505050565b5f90565b610742610736565b61074d818484610711565b505050565b5b81811015610770576107655f8261073a565b600181019050610753565b5050565b601f8211156107b5576107868161058d565b61078f84610672565b8101602085101561079e578190505b6107b26107aa85610672565b830182610752565b50505b505050565b5f82821c905092915050565b5f6107d55f19846008026107ba565b1980831691505092915050565b5f6107ed83836107c6565b9150826002028217905092915050565b6108068261027a565b67ffffffffffffffff81111561081f5761081e6103bb565b5b6108298254610553565b610834828285610774565b5f60209050601f831160018114610865575f8415610853578287015190505b61085d85826107e2565b8655506108c4565b601f1984166108738661058d565b5f5b8281101561089a57848901518255600182019150602085019450602081019050610875565b868310156108b757848901516108b3601f8916826107c6565b8355505b6001600288020188555050505b505050505050565b5f6020820190506108df5f83018461036c565b9291505056fea2646970667358221220abb7b445750616c5099911c12d8da35db01af9c991081ad4e9faa7f94e73b22664736f6c63430008170033",
  "immutableReferences": {},
  "source": "// SPDX-License-Identifier: MIT\npragma solidity 0.8.23;\n\ncontract DataRegistry {\n\n    bytes public storedFileData;\n    event FileStored(address indexed sender, uint256 fileContentLength);\n\n    function storeFile(bytes memory fileContent) public {\n        storedFileData = abi.encodePacked(storedFileData, fileContent);\n        emit FileStored(msg.sender, fileContent.length);\n    }\n\n    function getStoredFileData() public view returns (address, uint256) {\n        return (msg.sender, storedFileData.length);\n    }\n\n    function getStoredFile() public view returns (bytes memory) {\n        return storedFileData;\n    }\n}\n",
  "sourcePath": "/home/ahmed/Desktop/cyber/idenity/contracts/DataRegistry.sol",
  "compiler": {
    "name": "solc",
    "version": "0.8.23+commit.f704f362.Emscripten.clang"
  },
  "schemaVersion": "3.4.16",
  "updatedAt": "2023-12-14T19:50:32.548Z",
  "networkType": "ethereum",
  "devdoc": {
    "kind": "dev",
    "methods": {},
    "version": 1
  },
  "userdoc": {
    "kind": "user",
    "methods": {},
    "version": 1
  }
}