{
  "contractName": "VMController",
  "abi": [
    {
      "anonymous": false,
      "inputs": [
        {
          "indexed": false,
          "internalType": "string",
          "name": "vmName",
          "type": "string"
        }
      ],
      "name": "VMCreated",
      "type": "event"
    },
    {
      "anonymous": false,
      "inputs": [
        {
          "indexed": false,
          "internalType": "string",
          "name": "vmName",
          "type": "string"
        }
      ],
      "name": "VMDestroyed",
      "type": "event"
    },
    {
      "inputs": [
        {
          "internalType": "string",
          "name": "",
          "type": "string"
        }
      ],
      "name": "vmConfigs",
      "outputs": [
        {
          "internalType": "bool",
          "name": "exists",
          "type": "bool"
        },
        {
          "internalType": "string",
          "name": "vmName",
          "type": "string"
        },
        {
          "internalType": "string",
          "name": "remote",
          "type": "string"
        },
        {
          "internalType": "string",
          "name": "hook",
          "type": "string"
        },
        {
          "internalType": "string",
          "name": "ipv4",
          "type": "string"
        },
        {
          "internalType": "string",
          "name": "ipv4Gateway",
          "type": "string"
        },
        {
          "internalType": "uint256",
          "name": "port",
          "type": "uint256"
        },
        {
          "internalType": "bool",
          "name": "tls",
          "type": "bool"
        },
        {
          "internalType": "string",
          "name": "sshKey",
          "type": "string"
        },
        {
          "internalType": "string",
          "name": "sshAuthenticator",
          "type": "string"
        }
      ],
      "stateMutability": "view",
      "type": "function"
    },
    {
      "inputs": [
        {
          "internalType": "string",
          "name": "vmName",
          "type": "string"
        },
        {
          "internalType": "string",
          "name": "remote",
          "type": "string"
        },
        {
          "internalType": "string",
          "name": "hook",
          "type": "string"
        },
        {
          "internalType": "string",
          "name": "ipv4",
          "type": "string"
        },
        {
          "internalType": "string",
          "name": "ipv4Gateway",
          "type": "string"
        },
        {
          "internalType": "uint256",
          "name": "port",
          "type": "uint256"
        },
        {
          "internalType": "bool",
          "name": "tls",
          "type": "bool"
        },
        {
          "internalType": "string",
          "name": "sshKey",
          "type": "string"
        },
        {
          "internalType": "string",
          "name": "sshAuthenticator",
          "type": "string"
        }
      ],
      "name": "createVM",
      "outputs": [],
      "stateMutability": "nonpayable",
      "type": "function"
    },
    {
      "inputs": [
        {
          "internalType": "string",
          "name": "vmName",
          "type": "string"
        }
      ],
      "name": "destroyVM",
      "outputs": [],
      "stateMutability": "nonpayable",
      "type": "function"
    }
  ],
  "bytecode": "0x608060405234801561000f575f80fd5b506111b08061001d5f395ff3fe608060405234801561000f575f80fd5b506004361061003f575f3560e01c80635c3746a014610043578063a9e896ce1461005f578063d5c102c31461007b575b5f80fd5b61005d600480360381019061005891906109d7565b6100b4565b005b61007960048036038101906100749190610a86565b61020e565b005b610095600480360381019061009091906109d7565b610409565b6040516100ab9a99989796959493929190610ca6565b60405180910390f35b5f816040516100c39190610dab565b90815260200160405180910390205f015f9054906101000a900460ff1661011f576040517f08c379a000000000000000000000000000000000000000000000000000000000815260040161011690610e0b565b60405180910390fd5b5f8160405161012e9190610dab565b90815260200160405180910390205f8082015f6101000a81549060ff0219169055600182015f61015e9190610832565b600282015f61016d9190610832565b600382015f61017c9190610832565b600482015f61018b9190610832565b600582015f61019a9190610832565b600682015f9055600782015f6101000a81549060ff0219169055600882015f6101c39190610832565b600982015f6101d29190610832565b50507fc63bdce6a849b2cb816be8fba18c0611fcf5b62bcc82a618138cc5963be99748816040516102039190610e29565b60405180910390a150565b5f8960405161021d9190610dab565b90815260200160405180910390205f015f9054906101000a900460ff161561027a576040517f08c379a000000000000000000000000000000000000000000000000000000000815260040161027190610e93565b60405180910390fd5b6040518061014001604052806001151581526020018a81526020018981526020018881526020018781526020018681526020018581526020018415158152602001838152602001828152505f8a6040516102d49190610dab565b90815260200160405180910390205f820151815f015f6101000a81548160ff021916908315150217905550602082015181600101908161031491906110ab565b50604082015181600201908161032a91906110ab565b50606082015181600301908161034091906110ab565b50608082015181600401908161035691906110ab565b5060a082015181600501908161036c91906110ab565b5060c0820151816006015560e0820151816007015f6101000a81548160ff0219169083151502179055506101008201518160080190816103ac91906110ab565b506101208201518160090190816103c391906110ab565b509050507fd78b712ff06d7b9861319aa781b9755bc615505a07a3c704e4e40fc803a86a21896040516103f69190610e29565b60405180910390a1505050505050505050565b5f818051602081018201805184825260208301602085012081835280955050505050505f91509050805f015f9054906101000a900460ff169080600101805461045190610ede565b80601f016020809104026020016040519081016040528092919081815260200182805461047d90610ede565b80156104c85780601f1061049f576101008083540402835291602001916104c8565b820191905f5260205f20905b8154815290600101906020018083116104ab57829003601f168201915b5050505050908060020180546104dd90610ede565b80601f016020809104026020016040519081016040528092919081815260200182805461050990610ede565b80156105545780601f1061052b57610100808354040283529160200191610554565b820191905f5260205f20905b81548152906001019060200180831161053757829003601f168201915b50505050509080600301805461056990610ede565b80601f016020809104026020016040519081016040528092919081815260200182805461059590610ede565b80156105e05780601f106105b7576101008083540402835291602001916105e0565b820191905f5260205f20905b8154815290600101906020018083116105c357829003601f168201915b5050505050908060040180546105f590610ede565b80601f016020809104026020016040519081016040528092919081815260200182805461062190610ede565b801561066c5780601f106106435761010080835404028352916020019161066c565b820191905f5260205f20905b81548152906001019060200180831161064f57829003601f168201915b50505050509080600501805461068190610ede565b80601f01602080910402602001604051908101604052809291908181526020018280546106ad90610ede565b80156106f85780601f106106cf576101008083540402835291602001916106f8565b820191905f5260205f20905b8154815290600101906020018083116106db57829003601f168201915b505050505090806006015490806007015f9054906101000a900460ff169080600801805461072590610ede565b80601f016020809104026020016040519081016040528092919081815260200182805461075190610ede565b801561079c5780601f106107735761010080835404028352916020019161079c565b820191905f5260205f20905b81548152906001019060200180831161077f57829003601f168201915b5050505050908060090180546107b190610ede565b80601f01602080910402602001604051908101604052809291908181526020018280546107dd90610ede565b80156108285780601f106107ff57610100808354040283529160200191610828565b820191905f5260205f20905b81548152906001019060200180831161080b57829003601f168201915b505050505090508a565b50805461083e90610ede565b5f825580601f1061084f575061086c565b601f0160209004905f5260205f209081019061086b919061086f565b5b50565b5b80821115610886575f815f905550600101610870565b5090565b5f604051905090565b5f80fd5b5f80fd5b5f80fd5b5f80fd5b5f601f19601f8301169050919050565b7f4e487b71000000000000000000000000000000000000000000000000000000005f52604160045260245ffd5b6108e9826108a3565b810181811067ffffffffffffffff82111715610908576109076108b3565b5b80604052505050565b5f61091a61088a565b905061092682826108e0565b919050565b5f67ffffffffffffffff821115610945576109446108b3565b5b61094e826108a3565b9050602081019050919050565b828183375f83830152505050565b5f61097b6109768461092b565b610911565b9050828152602081018484840111156109975761099661089f565b5b6109a284828561095b565b509392505050565b5f82601f8301126109be576109bd61089b565b5b81356109ce848260208601610969565b91505092915050565b5f602082840312156109ec576109eb610893565b5b5f82013567ffffffffffffffff811115610a0957610a08610897565b5b610a15848285016109aa565b91505092915050565b5f819050919050565b610a3081610a1e565b8114610a3a575f80fd5b50565b5f81359050610a4b81610a27565b92915050565b5f8115159050919050565b610a6581610a51565b8114610a6f575f80fd5b50565b5f81359050610a8081610a5c565b92915050565b5f805f805f805f805f6101208a8c031215610aa457610aa3610893565b5b5f8a013567ffffffffffffffff811115610ac157610ac0610897565b5b610acd8c828d016109aa565b99505060208a013567ffffffffffffffff811115610aee57610aed610897565b5b610afa8c828d016109aa565b98505060408a013567ffffffffffffffff811115610b1b57610b1a610897565b5b610b278c828d016109aa565b97505060608a013567ffffffffffffffff811115610b4857610b47610897565b5b610b548c828d016109aa565b96505060808a013567ffffffffffffffff811115610b7557610b74610897565b5b610b818c828d016109aa565b95505060a0610b928c828d01610a3d565b94505060c0610ba38c828d01610a72565b93505060e08a013567ffffffffffffffff811115610bc457610bc3610897565b5b610bd08c828d016109aa565b9250506101008a013567ffffffffffffffff811115610bf257610bf1610897565b5b610bfe8c828d016109aa565b9150509295985092959850929598565b610c1781610a51565b82525050565b5f81519050919050565b5f82825260208201905092915050565b5f5b83811015610c54578082015181840152602081019050610c39565b5f8484015250505050565b5f610c6982610c1d565b610c738185610c27565b9350610c83818560208601610c37565b610c8c816108a3565b840191505092915050565b610ca081610a1e565b82525050565b5f61014082019050610cba5f83018d610c0e565b8181036020830152610ccc818c610c5f565b90508181036040830152610ce0818b610c5f565b90508181036060830152610cf4818a610c5f565b90508181036080830152610d088189610c5f565b905081810360a0830152610d1c8188610c5f565b9050610d2b60c0830187610c97565b610d3860e0830186610c0e565b818103610100830152610d4b8185610c5f565b9050818103610120830152610d608184610c5f565b90509b9a5050505050505050505050565b5f81905092915050565b5f610d8582610c1d565b610d8f8185610d71565b9350610d9f818560208601610c37565b80840191505092915050565b5f610db68284610d7b565b915081905092915050565b7f564d20646f6573206e6f742065786973740000000000000000000000000000005f82015250565b5f610df5601183610c27565b9150610e0082610dc1565b602082019050919050565b5f6020820190508181035f830152610e2281610de9565b9050919050565b5f6020820190508181035f830152610e418184610c5f565b905092915050565b7f564d20616c7265616479206578697374730000000000000000000000000000005f82015250565b5f610e7d601183610c27565b9150610e8882610e49565b602082019050919050565b5f6020820190508181035f830152610eaa81610e71565b9050919050565b7f4e487b71000000000000000000000000000000000000000000000000000000005f52602260045260245ffd5b5f6002820490506001821680610ef557607f821691505b602082108103610f0857610f07610eb1565b5b50919050565b5f819050815f5260205f209050919050565b5f6020601f8301049050919050565b5f82821b905092915050565b5f60088302610f6a7fffffffffffffffffffffffffffffffffffffffffffffffffffffffffffffffff82610f2f565b610f748683610f2f565b95508019841693508086168417925050509392505050565b5f819050919050565b5f610faf610faa610fa584610a1e565b610f8c565b610a1e565b9050919050565b5f819050919050565b610fc883610f95565b610fdc610fd482610fb6565b848454610f3b565b825550505050565b5f90565b610ff0610fe4565b610ffb818484610fbf565b505050565b5b8181101561101e576110135f82610fe8565b600181019050611001565b5050565b601f8211156110635761103481610f0e565b61103d84610f20565b8101602085101561104c578190505b61106061105885610f20565b830182611000565b50505b505050565b5f82821c905092915050565b5f6110835f1984600802611068565b1980831691505092915050565b5f61109b8383611074565b9150826002028217905092915050565b6110b482610c1d565b67ffffffffffffffff8111156110cd576110cc6108b3565b5b6110d78254610ede565b6110e2828285611022565b5f60209050601f831160018114611113575f8415611101578287015190505b61110b8582611090565b865550611172565b601f19841661112186610f0e565b5f5b8281101561114857848901518255600182019150602085019450602081019050611123565b868310156111655784890151611161601f891682611074565b8355505b6001600288020188555050505b50505050505056fea264697066735822122050fda6a0157973b8317e8eeae255799d97bf912aeb7e43a5c2234f5ac6a53d2264736f6c63430008170033",
  "immutableReferences": {},
  "source": "// SPDX-License-Identifier: MIT\npragma solidity ^0.8.0;\n\ncontract VMController {\n\n    struct VMConfig {\n        bool exists;\n        string vmName;\n        string remote;\n        string hook;\n        string ipv4;\n        string ipv4Gateway;\n        uint256 port;\n        bool tls;\n        string sshKey;\n        string sshAuthenticator;\n    }\n\n    mapping(string => VMConfig) public vmConfigs;\n\n    event VMCreated(string vmName);\n    event VMDestroyed(string vmName);\n\n    function createVM(\n        string memory vmName,\n        string memory remote,\n        string memory hook,\n        string memory ipv4,\n        string memory ipv4Gateway,\n        uint256 port,\n        bool tls,\n        string memory sshKey,\n        string memory sshAuthenticator\n    ) external {\n        require(!vmConfigs[vmName].exists, \"VM already exists\");\n\n        vmConfigs[vmName] = VMConfig(\n            true,\n            vmName,\n            remote,\n            hook,\n            ipv4,\n            ipv4Gateway,\n            port,\n            tls,\n            sshKey,\n            sshAuthenticator\n        );\n\n        emit VMCreated(vmName);\n    }\n\n    function destroyVM(string memory vmName) external {\n        require(vmConfigs[vmName].exists, \"VM does not exist\");\n\n        delete vmConfigs[vmName];\n\n        emit VMDestroyed(vmName);\n    }\n}\n",
  "sourcePath": "/home/ahmed/Desktop/cyber/idenity/contracts/VmController.sol",
  "compiler": {
    "name": "solc",
    "version": "0.8.23+commit.f704f362.Emscripten.clang"
  },
  "schemaVersion": "3.4.16",
  "updatedAt": "2023-12-08T14:41:47.469Z",
  "devdoc": {
    "kind": "dev",
    "methods": {},
    "version": 1
  },
  "userdoc": {
    "kind": "user",
    "methods": {},
    "version": 1
  }
}